{
  "contractName": "IOTLamp",
  "abi": [
    {
      "constant": false,
      "inputs": [
        {
          "name": "_name",
          "type": "string"
        },
        {
          "name": "_email",
          "type": "string"
        }
      ],
      "name": "addUser",
      "outputs": [],
      "payable": false,
      "stateMutability": "nonpayable",
      "type": "function"
    },
    {
      "constant": true,
      "inputs": [],
      "name": "readUsersLog",
      "outputs": [
        {
          "name": "_addr",
          "type": "address[]"
        }
      ],
      "payable": false,
      "stateMutability": "view",
      "type": "function"
    },
    {
      "constant": true,
      "inputs": [],
      "name": "isActive",
      "outputs": [
        {
          "name": "",
          "type": "bool"
        }
      ],
      "payable": false,
      "stateMutability": "view",
      "type": "function"
    },
    {
      "constant": true,
      "inputs": [
        {
          "name": "_addr",
          "type": "address"
        }
      ],
      "name": "readUser",
      "outputs": [
        {
          "name": "_name",
          "type": "string"
        },
        {
          "name": "_state",
          "type": "string"
        }
      ],
      "payable": false,
      "stateMutability": "view",
      "type": "function"
    },
    {
      "constant": false,
      "inputs": [
        {
          "name": "_flag",
          "type": "bool"
        }
      ],
      "name": "setActive",
      "outputs": [],
      "payable": false,
      "stateMutability": "nonpayable",
      "type": "function"
    },
    {
      "constant": true,
      "inputs": [
        {
          "name": "_addr",
          "type": "address"
        }
      ],
      "name": "getUserByAddr",
      "outputs": [
        {
          "name": "",
          "type": "string"
        },
        {
          "name": "",
          "type": "string"
        }
      ],
      "payable": false,
      "stateMutability": "view",
      "type": "function"
    },
    {
      "inputs": [],
      "payable": false,
      "stateMutability": "nonpayable",
      "type": "constructor"
    }
  ],
  "bytecode": "0x608060405234801561001057600080fd5b5060008060006101000a81548160ff021916908315150217905550610cba8061003a6000396000f300608060405260043610610078576000357c0100000000000000000000000000000000000000000000000000000000900463ffffffff168063079eaf341461007d578063183e39e7146100d057806322f3e2d41461013c5780638f34b66e1461016b578063acec338a14610293578063f16e4e46146102c2575b600080fd5b34801561008957600080fd5b506100ce6004803603810190808035906020019082018035906020019190919293919293908035906020019082018035906020019190919293919293905050506103ea565b005b3480156100dc57600080fd5b506100e561060c565b6040518080602001828103825283818151815260200191508051906020019060200280838360005b8381101561012857808201518184015260208101905061010d565b505050509050019250505060405180910390f35b34801561014857600080fd5b5061015161069a565b604051808215151515815260200191505060405180910390f35b34801561017757600080fd5b506101ac600480360381019080803573ffffffffffffffffffffffffffffffffffffffff1690602001909291905050506106b0565b604051808060200180602001838103835285818151815260200191508051906020019080838360005b838110156101f05780820151818401526020810190506101d5565b50505050905090810190601f16801561021d5780820380516001836020036101000a031916815260200191505b50838103825284818151815260200191508051906020019080838360005b8381101561025657808201518184015260208101905061023b565b50505050905090810190601f1680156102835780820380516001836020036101000a031916815260200191505b5094505050505060405180910390f35b34801561029f57600080fd5b506102c0600480360381019080803515159060200190929190505050610865565b005b3480156102ce57600080fd5b50610303600480360381019080803573ffffffffffffffffffffffffffffffffffffffff169060200190929190505050610964565b604051808060200180602001838103835285818151815260200191508051906020019080838360005b8381101561034757808201518184015260208101905061032c565b50505050905090810190601f1680156103745780820380516001836020036101000a031916815260200191505b50838103825284818151815260200191508051906020019080838360005b838110156103ad578082015181840152602081019050610392565b50505050905090810190601f1680156103da5780820380516001836020036101000a031916815260200191505b5094505050505060405180910390f35b606084848080601f01602080910402602001604051908101604052809392919081815260200183838082843782019150505050505090506000815111151561049a576040517f08c379a00000000000000000000000000000000000000000000000000000000081526004018080602001828103825260158152602001807f6e616d652063616e6e6f7420626520656d7074792e000000000000000000000081525060200191505060405180910390fd5b604080519081016040528086868080601f016020809104026020016040519081016040528093929190818152602001838380828437820191505050505050815260200184848080601f016020809104026020016040519081016040528093929190818152602001838380828437820191505050505050815250600360003373ffffffffffffffffffffffffffffffffffffffff1673ffffffffffffffffffffffffffffffffffffffff168152602001908152602001600020600082015181600001908051906020019061056e929190610bcf565b50602082015181600101908051906020019061058b929190610bcf565b5090505061059833610b2c565b15156106055760023390806001815401808255809150509060018203906000526020600020016000909192909190916101000a81548173ffffffffffffffffffffffffffffffffffffffff021916908373ffffffffffffffffffffffffffffffffffffffff160217905550505b5050505050565b6060600180548060200260200160405190810160405280929190818152602001828054801561069057602002820191906000526020600020905b8160009054906101000a900473ffffffffffffffffffffffffffffffffffffffff1673ffffffffffffffffffffffffffffffffffffffff1681526020019060010190808311610646575b5050505050905090565b60008060009054906101000a900460ff16905090565b6060806106bb610c4f565b600360008573ffffffffffffffffffffffffffffffffffffffff1673ffffffffffffffffffffffffffffffffffffffff168152602001908152602001600020604080519081016040529081600082018054600181600116156101000203166002900480601f01602080910402602001604051908101604052809291908181526020018280546001816001161561010002031660029004801561079e5780601f106107735761010080835404028352916020019161079e565b820191906000526020600020905b81548152906001019060200180831161078157829003601f168201915b50505050508152602001600182018054600181600116156101000203166002900480601f0160208091040260200160405190810160405280929190818152602001828054600181600116156101000203166002900480156108405780601f1061081557610100808354040283529160200191610840565b820191906000526020600020905b81548152906001019060200180831161082357829003601f168201915b5050505050815250509050806000015181602001518191508090509250925050915091565b61086e33610b2c565b15156108e2576040517f08c379a00000000000000000000000000000000000000000000000000000000081526004018080602001828103825260168152602001807f53656e646572206e6f7420617574686f72697a65642e0000000000000000000081525060200191505060405180910390fd5b806000806101000a81548160ff02191690831515021790555060013390806001815401808255809150509060018203906000526020600020016000909192909190916101000a81548173ffffffffffffffffffffffffffffffffffffffff021916908373ffffffffffffffffffffffffffffffffffffffff1602179055505050565b606080600360008473ffffffffffffffffffffffffffffffffffffffff1673ffffffffffffffffffffffffffffffffffffffff168152602001908152602001600020600001600360008573ffffffffffffffffffffffffffffffffffffffff1673ffffffffffffffffffffffffffffffffffffffff168152602001908152602001600020600101818054600181600116156101000203166002900480601f016020809104026020016040519081016040528092919081815260200182805460018160011615610100020316600290048015610a805780601f10610a5557610100808354040283529160200191610a80565b820191906000526020600020905b815481529060010190602001808311610a6357829003601f168201915b50505050509150808054600181600116156101000203166002900480601f016020809104026020016040519081016040528092919081815260200182805460018160011615610100020316600290048015610b1c5780601f10610af157610100808354040283529160200191610b1c565b820191906000526020600020905b815481529060010190602001808311610aff57829003601f168201915b5050505050905091509150915091565b600080600090505b600280549050811015610bc4578273ffffffffffffffffffffffffffffffffffffffff16600282815481101515610b6757fe5b9060005260206000200160009054906101000a900473ffffffffffffffffffffffffffffffffffffffff1673ffffffffffffffffffffffffffffffffffffffff161415610bb75760019150610bc9565b8080600101915050610b34565b600091505b50919050565b828054600181600116156101000203166002900490600052602060002090601f016020900481019282601f10610c1057805160ff1916838001178555610c3e565b82800160010185558215610c3e579182015b82811115610c3d578251825591602001919060010190610c22565b5b509050610c4b9190610c69565b5090565b604080519081016040528060608152602001606081525090565b610c8b91905b80821115610c87576000816000905550600101610c6f565b5090565b905600a165627a7a72305820c1a41d0d4496eb36349e7b121a561f780b08871ab92fa1bfcd918e0cb74f942b0029",
  "source": "pragma solidity ^0.4.24;\n\ncontract IOTLamp\n{  \n\n    struct User\n    {\n        string name;\n        string email;\n    }\n\n    bool active;\n    address[] usersLog;\n    address[] accessList;\n    mapping(address => User) userList;\n    \n    modifier onlyBy()\n    {\n        require(\n            isAllowed(msg.sender),\n            \"Sender not authorized.\"\n        );\n        _;\n    }\n\n    constructor() public{\n        active = false;\n    }\n\n    function addUser(string _name, string _email) external{\n        bytes memory name = bytes(_name);\n        require(name.length > 0, \"name cannot be empty.\");\n        userList[msg.sender] = User(_name, _email);\n        if(!isAllowed(msg.sender)) accessList.push(msg.sender);\n    }\n\n    function readUser(address _addr) external view returns(string _name, string _state){\n        User memory user = userList[_addr];\n\n        return (user.name, user.email); \n    }\n\n    function readUsersLog() external view returns (address[] _addr){\n        return usersLog;\n    }\n\n    function isActive() external view returns(bool){\n        return active;\n    }\n\n    function setActive(bool _flag) onlyBy() external{\n        active = _flag;\n        usersLog.push(msg.sender);\n    }\n\n    function getUserByAddr(address _addr) external view returns(string, string){\n\n        return (userList[_addr].name, userList[_addr].email);\n    }\n\n    function isAllowed(address _addr)view internal returns(bool){\n        for (uint index = 0; index < accessList.length; index++) {\n            if (accessList[index] == _addr) return true;\n        }\n        return false;\n    }\n }",
  "sourcePath": "/home/marcin/meetup-projects/smartcontract-demo/contracts/StateStore.sol",
  "compiler": {
    "name": "solc",
    "version": "0.4.24+commit.e67f0147.Emscripten.clang"
  },
  "schemaVersion": "1.0.1",
  "updatedAt": "2018-08-28T14:56:24.191Z"
}