{
  "contractName": "IOTLamp",
  "abi": [
    {
      "constant": false,
      "inputs": [
        {
          "name": "_name",
          "type": "string"
        },
        {
          "name": "_email",
          "type": "string"
        }
      ],
      "name": "addUser",
      "outputs": [],
      "payable": false,
      "stateMutability": "nonpayable",
      "type": "function"
    },
    {
      "constant": true,
      "inputs": [],
      "name": "readUsersLog",
      "outputs": [
        {
          "name": "_addr",
          "type": "address[]"
        }
      ],
      "payable": false,
      "stateMutability": "view",
      "type": "function"
    },
    {
      "constant": true,
      "inputs": [],
      "name": "isActive",
      "outputs": [
        {
          "name": "",
          "type": "bool"
        }
      ],
      "payable": false,
      "stateMutability": "view",
      "type": "function"
    },
    {
      "constant": true,
      "inputs": [],
      "name": "getAccessList",
      "outputs": [
        {
          "name": "_addr",
          "type": "address[]"
        }
      ],
      "payable": false,
      "stateMutability": "view",
      "type": "function"
    },
    {
      "constant": true,
      "inputs": [
        {
          "name": "_addr",
          "type": "address"
        }
      ],
      "name": "readUser",
      "outputs": [
        {
          "name": "_name",
          "type": "string"
        },
        {
          "name": "_state",
          "type": "string"
        }
      ],
      "payable": false,
      "stateMutability": "view",
      "type": "function"
    },
    {
      "constant": false,
      "inputs": [
        {
          "name": "_flag",
          "type": "bool"
        }
      ],
      "name": "setActive",
      "outputs": [],
      "payable": false,
      "stateMutability": "nonpayable",
      "type": "function"
    },
    {
      "inputs": [],
      "payable": false,
      "stateMutability": "nonpayable",
      "type": "constructor"
    }
  ],
  "bytecode": "0x608060405234801561001057600080fd5b5060008060006101000a81548160ff021916908315150217905550610ac48061003a6000396000f300608060405260043610610078576000357c0100000000000000000000000000000000000000000000000000000000900463ffffffff168063079eaf341461007d578063183e39e7146100d057806322f3e2d41461013c5780638d5ddbb31461016b5780638f34b66e146101d7578063acec338a146102ff575b600080fd5b34801561008957600080fd5b506100ce60048036038101908080359060200190820180359060200191909192939192939080359060200190820180359060200191909192939192939050505061032e565b005b3480156100dc57600080fd5b506100e5610550565b6040518080602001828103825283818151815260200191508051906020019060200280838360005b8381101561012857808201518184015260208101905061010d565b505050509050019250505060405180910390f35b34801561014857600080fd5b506101516105de565b604051808215151515815260200191505060405180910390f35b34801561017757600080fd5b506101806105f4565b6040518080602001828103825283818151815260200191508051906020019060200280838360005b838110156101c35780820151818401526020810190506101a8565b505050509050019250505060405180910390f35b3480156101e357600080fd5b50610218600480360381019080803573ffffffffffffffffffffffffffffffffffffffff169060200190929190505050610682565b604051808060200180602001838103835285818151815260200191508051906020019080838360005b8381101561025c578082015181840152602081019050610241565b50505050905090810190601f1680156102895780820380516001836020036101000a031916815260200191505b50838103825284818151815260200191508051906020019080838360005b838110156102c25780820151818401526020810190506102a7565b50505050905090810190601f1680156102ef5780820380516001836020036101000a031916815260200191505b5094505050505060405180910390f35b34801561030b57600080fd5b5061032c600480360381019080803515159060200190929190505050610837565b005b606084848080601f0160208091040260200160405190810160405280939291908181526020018383808284378201915050505050509050600081511115156103de576040517f08c379a00000000000000000000000000000000000000000000000000000000081526004018080602001828103825260158152602001807f6e616d652063616e6e6f7420626520656d7074792e000000000000000000000081525060200191505060405180910390fd5b604080519081016040528086868080601f016020809104026020016040519081016040528093929190818152602001838380828437820191505050505050815260200184848080601f016020809104026020016040519081016040528093929190818152602001838380828437820191505050505050815250600360003373ffffffffffffffffffffffffffffffffffffffff1673ffffffffffffffffffffffffffffffffffffffff16815260200190815260200160002060008201518160000190805190602001906104b29291906109d9565b5060208201518160010190805190602001906104cf9291906109d9565b509050506104dc33610936565b15156105495760023390806001815401808255809150509060018203906000526020600020016000909192909190916101000a81548173ffffffffffffffffffffffffffffffffffffffff021916908373ffffffffffffffffffffffffffffffffffffffff160217905550505b5050505050565b606060018054806020026020016040519081016040528092919081815260200182805480156105d457602002820191906000526020600020905b8160009054906101000a900473ffffffffffffffffffffffffffffffffffffffff1673ffffffffffffffffffffffffffffffffffffffff168152602001906001019080831161058a575b5050505050905090565b60008060009054906101000a900460ff16905090565b6060600280548060200260200160405190810160405280929190818152602001828054801561067857602002820191906000526020600020905b8160009054906101000a900473ffffffffffffffffffffffffffffffffffffffff1673ffffffffffffffffffffffffffffffffffffffff168152602001906001019080831161062e575b5050505050905090565b60608061068d610a59565b600360008573ffffffffffffffffffffffffffffffffffffffff1673ffffffffffffffffffffffffffffffffffffffff168152602001908152602001600020604080519081016040529081600082018054600181600116156101000203166002900480601f0160208091040260200160405190810160405280929190818152602001828054600181600116156101000203166002900480156107705780601f1061074557610100808354040283529160200191610770565b820191906000526020600020905b81548152906001019060200180831161075357829003601f168201915b50505050508152602001600182018054600181600116156101000203166002900480601f0160208091040260200160405190810160405280929190818152602001828054600181600116156101000203166002900480156108125780601f106107e757610100808354040283529160200191610812565b820191906000526020600020905b8154815290600101906020018083116107f557829003601f168201915b5050505050815250509050806000015181602001518191508090509250925050915091565b61084033610936565b15156108b4576040517f08c379a00000000000000000000000000000000000000000000000000000000081526004018080602001828103825260168152602001807f53656e646572206e6f7420617574686f72697a65642e0000000000000000000081525060200191505060405180910390fd5b806000806101000a81548160ff02191690831515021790555060013390806001815401808255809150509060018203906000526020600020016000909192909190916101000a81548173ffffffffffffffffffffffffffffffffffffffff021916908373ffffffffffffffffffffffffffffffffffffffff1602179055505050565b600080600090505b6002805490508110156109ce578273ffffffffffffffffffffffffffffffffffffffff1660028281548110151561097157fe5b9060005260206000200160009054906101000a900473ffffffffffffffffffffffffffffffffffffffff1673ffffffffffffffffffffffffffffffffffffffff1614156109c157600191506109d3565b808060010191505061093e565b600091505b50919050565b828054600181600116156101000203166002900490600052602060002090601f016020900481019282601f10610a1a57805160ff1916838001178555610a48565b82800160010185558215610a48579182015b82811115610a47578251825591602001919060010190610a2c565b5b509050610a559190610a73565b5090565b604080519081016040528060608152602001606081525090565b610a9591905b80821115610a91576000816000905550600101610a79565b5090565b905600a165627a7a723058204e672ed9fd023a3e0f9b347f85d6329c06bbdc585ee53c565803b313a198ecde0029",
  "source": "pragma solidity ^0.4.24;\n\ncontract IOTLamp\n{  \n\n    struct User\n    {\n        string name;\n        string email;\n    }\n\n    bool active;\n    address[] usersLog;\n    address[] accessList;\n    mapping(address => User) userList;\n    \n    modifier onlyBy()\n    {\n        require(\n            isAllowed(msg.sender),\n            \"Sender not authorized.\"\n        );\n        _;\n    }\n\n    constructor() public{\n        active = false;\n    }\n\n    function addUser(string _name, string _email) external{\n        bytes memory name = bytes(_name);\n        require(name.length > 0, \"name cannot be empty.\");\n        userList[msg.sender] = User(_name, _email);\n        if(!isAllowed(msg.sender)) accessList.push(msg.sender);\n    }\n\n    function readUser(address _addr) external view returns(string _name, string _state){\n        User memory user = userList[_addr];\n\n        return (user.name, user.email); \n    }\n\n    function readUsersLog() external view returns (address[] _addr){\n        return usersLog;\n    }\n\n    function getAccessList() external view returns(address[] _addr){\n        return accessList;\n    }\n    function isActive() external view returns(bool){\n        return active;\n    }\n\n    function setActive(bool _flag) onlyBy() external{\n        active = _flag;\n        usersLog.push(msg.sender);\n    }\n\n    function isAllowed(address _addr)view internal returns(bool){\n        for (uint index = 0; index < accessList.length; index++) {\n            if (accessList[index] == _addr) return true;\n        }\n        return false;\n    }\n }",
  "sourcePath": "/home/marcin/meetup-projects/smartcontract-demo/contracts/IOTLamp.sol",
  "compiler": {
    "name": "solc",
    "version": "0.4.24+commit.e67f0147.Emscripten.clang"
  },
  "schemaVersion": "1.0.1",
  "updatedAt": "2018-08-29T10:32:17.211Z"
}